:020000040800F2
:10000000406C002031030008391B0008CB0D0008AC
:10001000AF1A0008F50A0008E525000800000000F6
:10002000000000000000000000000000790200084D
:10003000090D000800000000CD0200089923000807
:100040004B0300084B0300084B0300087520000811
:100050004B0300084B0300084B0300084B03000848
:100060004B0300084B0300084B0300084B03000838
:100070004B0300084B0300084B0300084B03000828
:100080004B0300084B0300084B0300084B03000818
:100090004B0300084B0300084B0300084B03000808
:1000A0004B0300084B0300084B0300084B030008F8
:1000B0004B0300084B0300084B0300084B030008E8
:1000C0004B0300084B0300084B0300084B030008D8
:1000D0004B030008292400084B0300084B030008C9
:1000E0004B030008691D00084B0300084B03000880
:1000F0004B0300084B0300084B0300084B030008A8
:100100004B0300084B0300084B0300084B03000897
:100110004B0300084B0300084B0300084B03000887
:100120004B0300084B0300084B0300084B03000877
:100130004B0300084B0300084B0300084B03000867
:100140004B0300084B0300084B0300084B03000857
:100150004B0300084B0300084B0300084B03000847
:100160004B0300084B0300084B0300084B03000837
:100170004B0300084B0300084B0300084B03000827
:100180004B0300084B03000800F002F800F064F88D
:100190000AA090E8000C82448344AAF10107DA45E2
:1001A00001D100F059F8AFF2090EBAE80F0013F0D0
:1001B000010F18BFFB1A43F00103184774C9000070
:1001C00094C900000A444FF0000C10F8013B13F0F2
:1001D000070408BF10F8014B1D1108BF10F8015BA0
:1001E000641E05D010F8016B641E01F8016BF9D193
:1001F00013F0080F1EBF10F8014BAD1C0C1B09D1EA
:100200006D1E58BF01F801CBFAD505E014F8016B5B
:1002100001F8016B6D1EF9D59142D6D370470000ED
:100220000023002400250026103A28BF78C1FBD8FF
:10023000520728BF30C148BF0B607047642900F0E7
:100240002D81732900F08983002070471FB508F0C5
:1002500090FB1FBD10B510BD00F01EFC1146FFF74E
:10026000F5FF04F0B5FA00F03CFC03B4FFF7F2FF31
:1002700003BC02F0FCFF00002A4B19680868B0E8D4
:10028000F04F80F30988BFF36F8F4FF0000080F3C9
:10029000118870470000000006480068006880F37D
:1002A000088862B661B6BFF34F8FBFF36F8F00DF70
:1002B00000BF00BF08ED00E0DFF80C00016841F46A
:1002C00070010160704700BF88ED00E0EFF3098026
:1002D000BFF36F8F134B1A681EF0100F08BF20ED8D
:1002E000108A20E9F04F106008B44FF0500080F3FE
:1002F0001188BFF34F8FBFF36F8F06F06DFF4FF084
:10030000000080F3118808BC19680868B0E8F04F55
:100310001EF0100F08BFB0EC108A80F30988BFF3FD
:100320006F8F704714010020EFF3058070470000C5
:100330000948804709480047FEE7FEE7FEE7FEE779
:10034000FEE7FEE7FEE7FEE7FEE7FEE704480549B5
:10035000054A064B70470000AD23000889010008DC
:1003600040660020406C002040680020406800206B
:10037000704710B54C1084EA530404D54042C1F1D3
:10038000000138BF491E1B4204D55242C3F100038D
:1003900038BF5B1E00F0D7F914F0804F04D0404204
:1003A000C1F1000138BF491E14F0004F04D0524281
:1003B000C3F1000338BF5B1E10BD00000FB4044939
:1003C00010B503AA029800F0CDFA10BC5DF814FB3A
:1003D000000100200FB41CB5074B06AA7B446946F8
:1003E0000090059800F08FFA0020694600F09EFA10
:1003F0001CBC5DF814FB00004D05000070B5044600
:1004000085690068C10601D5302600E02026C007B6
:1004100007D070BDD4E9012130469047206A401CC6
:1004200020626D1EF6D570BD70B5044685690078F2
:10043000C00707D170BDD4E9012120209047206A70
:10044000401C20626D1EF6D570BD70B50C46054689
:10045000012A05D02878800600D5EA69002302E049
:10046000012305E05B1C934202D2E05C0028F9D135
:10047000A869E618C01AA861286A184428622846A4
:10048000FFF7BCFF04E0D5E9012114F8010B904708
:10049000B442F8D32846FFF7C7FF70BD2DE9F041FD
:1004A0000646002410687529314616A510D0AFF312
:1004B0000080002802DA404213A507E031688A076D
:1004C00001D512A502E0490704D511A5012401E0D8
:1004D000AFF3008000210A2206F1240709E0B0FBF7
:1004E000F2FCB0FBF2F302FB1C00303078541846EB
:1004F000491C0028F3D123462A463046BDE8F04186
:1005000000F0A3B9000000002D0000002B00000047
:10051000200000002DE9F05F894604464FF0000AF4
:10052000DFF824B1FB44C0F820A02046E1688847EA
:1005300000287DD0252806D0D4E901219047206AE3
:10054000401C2062F1E700255F462046E1688847AD
:100550002028064607DB312E05D2B81910F8200CEA
:1005600008B10543F1E7A80701D525F00405C4F853
:100570001CA00027C4F818A02A2E09D0304602F08B
:100580006FFE38B304EB8708303EC8F8186019E0F6
:1005900059F8041B204604EB87029161E168884703
:1005A000012F064618D1E069002820DA25F0200541
:1005B0001DE0D8F8180000EB800006EB4000303852
:1005C000C8F818002046E1688847064602F048FE51
:1005D0000028EED1012F0AD02E2E08D12046E16846
:1005E00088477F1C0646022F45F02005C4DBA06922
:1005F000002803DA404245F00105A061E80701D078
:1006000025F01005A6B1A6F14100192802D8203620
:1006100045F400654A463146204625604D46FFF7C1
:100620000DFE60B1012807D0ED1D25F0070000E0A8
:1006300007E000F1080978E705F1040975E730469D
:100640007AE7206ABDE8F09F9AC4000040EA0103FF
:1006500010B59B070FD1042A0DD310C808C9121F6B
:100660009C42F8D020BA19BA884201D9012010BDA5
:100670004FF0FF3010BD1AB1D30703D0521C07E072
:10068000002010BD10F8013B11F8014B1B1B07D1D6
:1006900010F8013B11F8014B1B1B01D1921EF1D147
:1006A000184610BD032A40F2308010F0030C00F011
:1006B000158011F8013BBCF1020F624498BF11F89C
:1006C00001CB00F8013B38BF11F8013BA2F1040255
:1006D00098BF00F801CB38BF00F8013B11F00303CD
:1006E00000F05281083AC0F0088051F8043B083A03
:1006F00051F804CBA0E80810F5E7121D5CBF51F8D3
:10070000043B40F8043BAFF30080D20724BF11F84C
:10071000013B11F801CB48BF11F8012B24BF00F8B1
:10072000013B00F801CB48BF00F8012B704702F0F5
:10073000FF0343EA032242EA024200F059B970473C
:1007400070477047704753EA020C00F069802DE94A
:10075000F04B4FF00006002B1FBFB3FA83F503FAEE
:1007600005F424FA05F65E4012BF1643B2FA82F58C
:1007700002FA05F4C5F120051EBF22FA05FC44EA81
:100780000C04203556EA044C4FEA144418BF641C8C
:100790004FF000084FF00009904271EB030C39D381
:1007A000002919BFB1FA81F701FA07F6B0FA80F70C
:1007B00000FA07F6C7F120071EBF20FA07FC46EA39
:1007C0000C062037B6FBF4FCA7EB0507103F07F03B
:1007D0001F0BCBF120060CFA0BFB2CFA06F644BFDC
:1007E000B3460026202FA4BF5E464FF0000B5BEA05
:1007F000060C08BF4FF0010B19EB0B09ABFB027C99
:1008000048EB0608C01B06FB02CC0BFB03CC71EBCC
:100810000C01C1E70B46024641464846BDE8F08B55
:1008200013B54FF000004FF00001AFF30080BDE8BA
:100830001C40704710B500F0FBF8006810BD10B503
:10084000044600F0F5F8046010BD2DE9F0470D46B0
:1008500099469246044600F124080168880604D5AA
:10086000E06921F01001216000E00120A84201DDD3
:10087000471B00E00027A1697A1902EB0900081A5A
:10088000A0612078C00602D42046FFF7B7FD0026FD
:1008900008E0D4E901211AF806009047206A401CBC
:1008A000761C20624E45F4DB2078C0060AD520462F
:1008B000FFF7A4FD06E0D4E9012130209047206A2B
:1008C000401C2062381EA7F10107F4DC07E0D4E9E0
:1008D000012118F805009047206A401C2062281E5C
:1008E000A5F10105F3DC2046FFF79EFD2078000608
:1008F00002D50220BDE8F0870120FBE701694A1C10
:1009000002610878704700B58FB0CDE90131002150
:10091000059105497944CDE9031011466846FFF772
:10092000F9FD0FB000BD0000E5FFFFFF0A6802F807
:10093000010B0A60704710B5436913B1AFF3008033
:1009400001E0FFF782FD012010BD127800F12401C3
:100950000A7000224A700122EDE711684FF0FF3261
:10096000E9E70000074B70B50D467B44FFF7CBFF6E
:100970000446284600F060F810B14FF0FF3070BD1B
:10098000204670BD3736000010B5203AC0F00B800D
:10099000B1E81850203AA0E81850B1E81850A0E883
:1009A0001850BFF4F5AF5FEA027C24BFB1E81850DD
:1009B000A0E8185044BF18C918C0BDE810405FEA4D
:1009C000827C24BF51F8043B40F8043B08BF7047C9
:1009D000D20728BF31F8023B48BF11F8012B28BFCE
:1009E00020F8023B48BF00F8012B70474FF000028F
:1009F0000429C0F0128010F0030C00F02380CCF129
:100A0000040CBCF1020F18BF00F8012BA8BF20F89E
:100A1000022BA1EB0C0100F015B85FEAC17C24BFEA
:100A200000F8012B00F8012B48BF00F8012B70479C
:100A300000487047DC650020007B00F080007047B4
:100A40004FF0000200B5134694469646203922BF67
:100A5000A0E80C50A0E80C50B1F12001BFF4F7AFB2
:100A6000090728BFA0E80C5048BF0CC05DF804EB94
:100A7000890028BF40F8042B08BF704748BF20F802
:100A8000022B11F0804F18BF00F8012B70470000B7
:100A900000487047DC6500207546FFF7F9FFAE4659
:100AA00005006946534620F00700854618B020B57A
:100AB000FFF74CFCBDE820404FF000064FF0000768
:100AC0004FF000084FF0000B21F00701AC46ACE8F6
:100AD000C009ACE8C009ACE8C009ACE8C0098D4663
:100AE000704710B50446AFF300802046BDE81040C3
:100AF000FFF7BBBBFEE710B500228B5C845CA34212
:100B000001D0002010BD521C062AF6DB012010BDCA
:100B100010B5044600F034FB462000F001FB00F065
:100B200069FB0028FBD1204600F0FAFA00F062FBD6
:100B30000028FBD100F040FBBDE81040052002F08A
:100B400031BC000010B50A490C460878497801EB21
:100B5000002080B2608007F0C8FB9FED061B53ECBD
:100B6000112B07F03BFA07F091FB606010BD00000D
:100B7000B8000020333333333333F33F70B50024F0
:100B80001448016821F44021016001680160124DA0
:100B900004E0641CE4B2012002F020FCD5F8240239
:100BA00008B1642CF5D3642C01D3012070BD00245E
:100BB00004E0641CE4B2012002F010FCD5F8240229
:100BC00008B9642CF5D3642C01D3012070BD00203A
:100BD00070BD000000180240000043421CB5012116
:100BE000402000F0EFFF4FF40070009001208DF8DE
:100BF000040000218DF8061002218DF805108DF8F3
:100C000007006946034800F087F800F061F8FFF735
:100C1000B5FF1CBD0018024070B50024104D04E063
:100C2000641CE4B2012002F0D9FBD5F8240208B11B
:100C3000642CF5D3002404E0641CE4B2012002F02B
:100C4000CDFBD5F8240208B9642CF5D3282002F096
:100C5000C5FBD5F8240208B1012070BD002070BD8D
:100C60000000434270B5002000244006050EFFF747
:100C7000D3FF2843641CE4B2082CF6D370BD2DE9E1
:100C8000FC4106460F4600F023F8FFF777FF10B14E
:100C90000120BDE8FC8100246D46FFF7E3FF2855E5
:100CA000641CE4B2052CF8D39DF800109DF80100F7
:100CB0009DF803300A189DF8020003441A449DF879
:100CC00004309A4201D1397030700020E1E7000011
:100CD00010B50B48016821F440210160016841F41E
:100CE00080210160074C00202060142002F05AFB94
:100CF00001202060BDE810401E2002F06FBB000004
:100D000000180240A40243427047000001490860F5
:100D100070470000143C01402DE9F04100220127FA
:100D20004FF0030C07FA02F50B682B40AB422CD1B5
:100D3000066853000CFA03F4A64306600E79D0F857
:100D400000809E4046EA080606600E79012E01D01A
:100D5000022E12D18668A64386604E79D0F80880AC
:100D60009E4046EA080686604668AE43466045688F
:100D70008E799640B6B235434560C568A543C560D7
:100D8000CC799C40C3681C43C460521C102AC9D350
:100D9000BDE8F08110B54B07DB0E9A40C90800EBA7
:100DA0008100016A0F249C40A1430162016A114342
:100DB000016210BD0246002012690A4200D00120E3
:100DC00070474183704701837047FEE770B50B4C55
:100DD000002525600A48016821F44041016001684E
:100DE00041F4804101606560022002F0F7FA0120C1
:100DF0002060022002F0F2FA256070BD9882404225
:100E00000004024070B50B4C002525600A480168BB
:100E100021F440010160016841F4800101606560D6
:100E2000022002F0DBFA01202060022002F0D6FA54
:100E3000256070BDA8824042000402401CB501211B
:100E4000022000F0BFFE4FF44060009001248DF8B6
:100E5000044000208DF8060003208DF805008DF871
:100E6000074069460348FFF757FF034804604460A2
:100E70001CBD000000040240A882404270B50B4C2B
:100E8000002525600A48016821F4400101600168DD
:100E900041F48001016001266660022002F09EFAA2
:100EA0002660022002F09AFA256070BDA8824042B6
:100EB000000402402DE9F0478146002415480168EE
:100EC00021F440010160016801600025124E0027F5
:100ED0004FF00108C6F8A872022002F07FFAC6F8A7
:100EE000A8826006040ED6F82C0208B1641CE4B295
:100EF000012002F073FA6D1CEDB2082DEAD3B9F1AE
:100F0000000F04D0FFF77EFF2046BDE8F087FFF713
:100F1000B5FFF9E700040240008040422DE9F041AE
:100F200005461448016821F440010160016841F45C
:100F300080010160104E4FF00008C6F8A88200241E
:100F40000127E809C6F8AC026806050E022002F087
:100F500045FAC6F8A872022002F040FAC6F8A88244
:100F6000022002F03BFA641CE4B2082CE9D3BDE88D
:100F7000F0810000000402400080404270B50B4840
:100F8000016821F440010160016841F480010160C1
:100F9000074C012060602060042002F01FFA002549
:100FA0006560042002F01AFA256070BD000402405A
:100FB000A882404210B50C48016821F4400101604C
:100FC000016841F480010160084C002020606060ED
:100FD000042002F003FA012020606060BDE81040A8
:100FE000042002F0FBB9000000040240A882404245
:100FF00070B500241148016821F4400101600168C6
:1010000001600F4D0126C5F8AC62012002F0E6F93F
:10101000C5F8A862012002F0E1F907E0641CE4B21F
:10102000FA2C03D9FFF7C6FF012070BDD5F82C02BA
:101030000028F3D1C5F8A80270BD000000040240EA
:10104000008040421CB50121022000F0BBFDC02001
:10105000009001248DF8044000208DF80600032044
:101060008DF805008DF8074069460348FFF754FEE8
:101070000248046044601CBD000402409882404263
:1010800070B50B4C002525600A48016821F44041E9
:101090000160016841F48041016001266660022020
:1010A00002F09CF92660022002F098F9256070BDDC
:1010B00098824042000402402DE9F0478146002416
:1010C0001548016821F44041016001680160002574
:1010D000124E00274FF00108C6F89872022002F065
:1010E0007DF9C6F898826006040ED6F81C0208B195
:1010F000641CE4B2012002F071F96D1CEDB2082D00
:10110000EAD3B9F1000F04D0FFF760FE2046BDE836
:10111000F087FFF7B5FFF9E7000402400080404286
:101120002DE9F04105461448016821F44041016071
:10113000016841F480410160104E4FF00008C6F88C
:10114000988200240127E809C6F89C026806050E6B
:10115000022002F043F9C6F89872022002F03EF92C
:10116000C6F89882022002F039F9641CE4B2082C17
:10117000E9D3BDE8F0810000000402400080404255
:1011800070B50B48016821F440410160016841F4E9
:1011900080410160074C012060602060042002F063
:1011A0001DF900256560042002F018F9256070BD66
:1011B000000402409882404210B50C48016821F4B6
:1011C00040410160016841F480410160084C002009
:1011D00020606060042002F001F90120206060605E
:1011E000BDE81040042002F0F9B8000000040240FD
:1011F0009882404270B500241148016821F44041B2
:101200000160016801600F4D0126C5F89C62012054
:1012100002F0E4F8C5F89862012002F0DFF807E078
:10122000641CE4B2FA2C03D9FFF7C6FF012070BD9D
:10123000D5F81C020028F3D1C5F8980270BD000053
:1012400000040240008040421CB50121112000F042
:10125000B9FC1C20009000208DF8040003208DF8BC
:10126000050001248DF8074069460648FFF754FD44
:10127000009402208DF8070069460348FFF74CFDF3
:101280001CBD000000100240000002402DE9F041AA
:1012900001252E4C002800D0257020782C4F2D4E93
:1012A000A0B110213046FFF785FDB0B108213046CE
:1012B000FFF780FD88B104213046FFF77BFD60B168
:1012C00001213846FFF776FD012806D0102130466F
:1012D000FFF770FD012824D035E00A2002F062F803
:1012E0000020207010213046FFF764FD80B10821F6
:1012F0003046FFF75FFD70B104213046FFF75AFD1D
:1013000058B101213846FFF755FD012807D01AE0F2
:101310000120BDE8F0810220FBE70320F9E704206B
:10132000F7E708213046FFF745FD01280BD10421DE
:101330003046FFF73FFD012805D101213846FFF770
:1013400039FD00B925700020E3E70000F50000201A
:1013500000000240001002402DE9F04105460F4612
:1013600014461E462A2000F0D9FA6D1CA8B200F0DF
:10137000C8FA641CA0B200F0C4FA2B2000F0CEFA28
:10138000BF1CB8B200F0BDFAB61CB0B200F0B9FA9A
:10139000BDE8F0412C2000F0C1BA2DE9FE4F002538
:1013A0000026171AA3EB010881468A46681E002F03
:1013B00003DD4FF00101019107E003D14FF000017F
:1013C000019102E00190C7F10007B8F1000F03DDC1
:1013D0004FF00100009007E003D14FF000000090B3
:1013E00002E00090C8F10008474501DD3C4600E0FE
:1013F00044464FF0000B601C029016E01FFA8AF181
:101400001FFA89F00C9A00F015F83D444644A542B5
:1014100002DD2D1B01988144A64202DD361B009897
:1014200082440BF1010B1FFA8BFB02988345E5DB2D
:10143000BDE8FE8F10B514460B460246FFF78CFF41
:101440002046BDE8104000F05CBA2DE9F047804628
:10145000DDF820900D4616461F46781E83B2701E9A
:1014600082B229464046FFF777FF0AE0444604E08F
:10147000484600F046FA641CA4B2B442F8D36D1C8E
:10148000ADB2BD42F2D3BDE8F08700002DE9FC41CA
:1014900001215F2000F096FB4FF480570097012454
:1014A0008DF8044000258DF8065003268DF8056060
:1014B0008DF80740DFF8688069464046FFF72CFC4E
:1014C00039464046FFF77FFC48F2320700978DF817
:1014D00004408DF806508DF805608DF80740DFF860
:1014E000448069464046FFF717FC39464046FFF7FF
:1014F0006AFC4FF4A06700978DF804408DF8065001
:101500008DF805608DF80740074C69462046FFF7C7
:1015100003FC39462046FFF756FCBDE8FC8100007D
:1015200000180240000C02400010024010B5FFF706
:10153000ADFF7C4C10212046FFF743FC642001F0F6
:1015400031FF10212046FFF73EFC642001F02AFF06
:10155000A1157548FFF737FC642001F023FF112027
:1015600000F0DCF9782001F01DFFB12000F0D6F981
:10157000052000F0D0F93C2000F0CDF93C2000F02F
:10158000CAF9B22000F0CAF9052000F0C4F93C20E5
:1015900000F0C1F93C2000F0BEF9B32000F0BEF924
:1015A000052000F0B8F93C2000F0B5F93C2000F02F
:1015B000B2F9052000F0AFF93C2000F0ACF93C2076
:1015C00000F0A9F9B42000F0A9F9032000F0A3F974
:1015D000C02000F0A3F9282000F09DF9082000F0B9
:1015E0009AF9042000F097F9C12000F097F9C02083
:1015F00000F091F9C22000F091F90D2000F08BF974
:10160000002000F088F9C32000F088F98D2000F058
:1016100082F92A2000F07FF9C42000F07FF98D20A4
:1016200000F079F9EE2000F076F9C52000F076F9A7
:101630001A2000F070F9362000F070F9A02000F0B8
:101640006AF9E02000F06AF9042000F064F9222031
:1016500000F061F9072000F05EF90A2000F05BF964
:101660002E2000F058F9302000F055F9252000F028
:1016700052F92A2000F04FF9282000F04CF92620DA
:1016800000F049F92E2000F046F93A2000F043F925
:10169000002000F040F9012000F03DF9032000F0A7
:1016A0003AF9132000F037F9E12000F037F904206F
:1016B00000F031F9162000F02EF9062000F02BF989
:1016C0000D2000F028F92D2000F025F9262000F04B
:1016D00022F9232000F01FF9272000F01CF9272011
:1016E00000F019F9252000F016F92D2000F013F96B
:1016F0003B2000F010F9002000F00DF9012000F06F
:101700000AF9042000F007F9132000F004F93A2048
:1017100000F004F9052000F0FEF8BDE81040292093
:1017200000F0FCB8000C0240001002402DE9FF4F11
:1017300083B00746DDF844904FF0000801974FEA68
:10174000590A5FEA4A7001D0012000E0002000EB56
:10175000DA0000FB09F00290203A02F0FF0B049837
:1017600004994844401E83B207EB0A00401E82B22F
:101770003846FFF7F1FD002554E0B9F10C0F24D0F5
:10178000B9F1100F28D0B9F1180F2AD0B9F1200FF4
:101790004BD1294800EB8B10465D0024129838B3DA
:1017A0000120A040304204D03846069A0499FFF741
:1017B00041FE7F1CBFB20198381A50452CD1019FC1
:1017C0000498401C80B204902AE01C490BEB4B00AB
:1017D00001EB8000465DE0E7194800EB0B10465D29
:1017E000DBE718490BEB4B0001EB0010465DD4E73B
:1017F0000120A040304203D0069800F082F802E0B9
:10180000109800F07EF808F1010808F0FF08B8FB16
:10181000FAF00AFB108058B1641CE4B2082CBDD366
:101820006D1CADB202988542A7D307B0BDE8F08F1A
:101830004FF00008F4E7000002B20008CE9500085F
:10184000429A000832A000082DE9FF4F83B081467C
:10185000DDE911A61D4600274FEA56080024A346DD
:1018600022E0281B401EC1B20A2004F0D5F80599D9
:10187000B1FBF0F00A21B0FBF1F201FB120027B935
:10188000691E8C4201DAA0B10127CDE9016B30302D
:10189000C2B204FB089080B2CDF800A0109B04995E
:1018A000FFF744FF641CE4B2AC42DAD307B0BDE8F2
:1018B000F08FCDE9016B04FB089080B2CDF800A059
:1018C0002022109B0499FFF731FFEBE72DE9FE4F33
:1018D0000546DDE90D68894614469A460C9F0BE0E3
:1018E000CDE901685346494628460097FFF71EFF99
:1018F00005EB560085B2641C2278002AF0D1BDE8C1
:10190000FE8F10B50446200A00F01CF8E0B2BDE8D6
:10191000104000F017B800F015B8000070B506468A
:10192000074D4FF4004421462846FFF74AFA304657
:1019300000F008F821462846BDE87040FFF743BA9A
:10194000000C02402DE9F0410546DFF850800221ED
:101950004046FFF736FA0024114F4FF480563146C7
:101960003846FFF72EFA280604D520214046FFF717
:101970002AFA03E020214046FFF723FA3146384691
:10198000FFF721FA6806050E641CE4B2082CE6D3C2
:101990004046BDE8F0410221FFF715BA000C0240B5
:1019A000001802407CB50121202000F00BF94FF413
:1019B000C064009401208DF8040000228DF80620F8
:1019C00003228DF805208DF80700054D694628464D
:1019D000FFF7A2F921462846FFF7F5F97CBD000084
:1019E000001402402DE9F04106460F4615461C46FC
:1019F000FFF7C4FA7006000EFFF790FAFFF7F8FA47
:101A000020B1FFF7D7FA0120BDE8F0813846FFF793
:101A100085FAFFF7EDFAFFF7B1FA012000EB460077
:101A2000C0B2FFF77BFAFFF7E3FA08E0012D0CD014
:101A30000120FFF73FFA20706D1EEDB2641C002DEF
:101A4000F4D1FFF7B7FA0020DEE70020FFF732FA03
:101A50002070F1E72DE9F04104460F4616461D4679
:101A6000FFF78CFA6006000EFFF758FAFFF7C0FA8E
:101A700020B1FFF79FFA0120BDE8F0813846FFF75B
:101A80004DFAFFF7B5FA00240BE0285DFFF746FAA0
:101A9000FFF7AEFA18B1FFF78DFA0120ECE7641CEE
:101AA000E4B2B442F1D3FFF785FA0020E4E7FEE7A1
:101AB0003EB541F6FF740121080700F091F80120BE
:101AC00000F07AF8002000F009FA45F25005A8422B
:101AD0002ED0012000F01AF904E0641CA4B20A2000
:101AE00001F060FC412000F0F5F80028F5D00CB3BF
:101AF0004FF4807000F020F9012000F017F97F20EA
:101B00000190FF20029000200090684600F0BEF98E
:101B100000231A4606210E2000F09EFA05231E22FD
:101B20000621172000F08AFA2946002000F0DAFA90
:101B300000203EBD01203EBD7047000030B50F23A0
:101B4000C27801250178002A1FD0154A126802F4D4
:101B5000E062C2F5E062C2F30722C2F10404D3409E
:101B60004278A24084781C401443220101F1E02114
:101B700081F80024007800F01F018D4040098000AA
:101B800000F1E020C0F8005130BD01F01F00854099
:101B90004809800000F1E020C0F8805130BD00000D
:101BA0000CED00E00249084302490860704700005C
:101BB0000000FA050CED00E00149086270470000E2
:101BC00000000E42054A002903D01168014311604C
:101BD000704711688143116070470000303802403F
:101BE000054A002903D0116801431160704711684C
:101BF000814311607047000040380240054A0029C7
:101C000003D011680143116070471168814311606E
:101C10007047000044380240054A002903D011688B
:101C200001431160704711688143116070470000E3
:101C30002438024070B5244B196801F00C01234C84
:101C400000291ED0661004291DD008291DD004606B
:101C5000196801F0F00109091D4A545C0168E1406E
:101C600041601C6804F4E054A40A145D21FA04F4F1
:101C700084601B6803F460435B0BD25CD140C1609D
:101C800070BD0460E4E70660E2E70F4A121F1168C6
:101C9000C1F38055116801F03F0135B1B6FBF1F198
:101CA0001468C4F38814614305E0B4FBF1F11468CF
:101CB000C4F3881461431268C2F30142521C5200FB
:101CC000B1FBF2F10160C3E7083802400024F400E0
:101CD0000401002002460020510901290BD00229ED
:101CE0000DD00949096802F01F02012393400B42FD
:101CF00000D001207047044974390968F3E70249AC
:101D0000091F0968EFE70000743802400649002205
:101D10000A700A70012804D0042801D10520087037
:101D20007047012008707047703802400149086010
:101D3000704700003C0E4742C0F30121032907D140
:101D4000074B196821F4F812064901401143196044
:101D5000034A68321168C0F30B00014311607047F9
:101D600008380240FFFCFF0F10B54FF48074204686
:101D700000F058F8012802D1204600F01BF8BDE819
:101D800010404FF40030FEF7C1BF010901EB8101A3
:101D9000490000F00F000844C0B27047002103E082
:101DA000491CC9B20A38C0B20A28F9D2090740EA68
:101DB0001160704780B240F08000C1430348026860
:101DC00002F0800211430160704700000C280040BF
:101DD00008B5002000900E490868400615D44FF061
:101DE000FF3008608B13086800F04000009A521C16
:101DF0000092009A9A4201D00028F4D00868400668
:101E000001D5012008BD002008BD012008BD00004B
:101E10000C2800400248016821F0800101607047F1
:101E20000C2800400246002003490968034B194072
:101E3000114200D0012070470C2800407F3F010074
:101E400010B502460C460F4801680F480140C1F327
:101E500005402070C1F30623637001F07F03A37077
:101E600001F48001090CE170002A0AD1FFF78DFF0F
:101E700020706078FFF789FF6070A078FFF785FF1A
:101E8000A07010BD002800407F7F7F0070B5044621
:101E90000025114ECA20306053203060FFF798FFB4
:101EA000A8B10D481C38016821F0400101600168AB
:101EB0002268114301600848A16814380160016874
:101EC000A28841EA02410160FFF7A4FF0125FF203B
:101ED0003060284670BD00002428004008B5034942
:101EE00001EB800000900098006808BD5028004079
:101EF00070B505460C460026002D06D16078C10657
:101F000003D520F010000A3060702DB16078FFF723
:101F10003CFFA078FFF739FF55B1A078E17840EA9F
:101F2000014560782178000240EA413005430FE026
:101F3000E078FFF733FF05046078FFF72FFF45EAED
:101F40000025A078FFF72AFF0543207845EA4035B1
:101F50000E4CCA20206053202060FFF739FF88B163
:101F60000B480540094820380560FFF753FF074834
:101F70001C380068800604D400F08EF810B10126E9
:101F800000E00126FF202060304670BD242800407C
:101F90003FFFFF002DE9F04105460C4600260020DA
:101FA000244F002D06D03968490608D52078FFF760
:101FB000ECFE05E03968490602D4E07000E0E0700C
:101FC00055B1A078217840EA01456078E1780002B7
:101FD00040EA014005430FE02078FFF7DFFE0504EB
:101FE0006078FFF7DBFE45EA0025A078FFF7D6FE14
:101FF0000543E07845EA00450E4CCA201C342060B9
:1020000053202060FFF7E4FE78B10B4805400948F3
:1020100008380560FFF7FEFE3868800604D400F03B
:102020003BF810B1012600E00126FF202060304679
:10203000BDE8F081082800407F7F7F0008B58DF85B
:1020400002208DF801108DF800308DF803006946EC
:102050000020FFF74DFF08BD08B58DF800008DF892
:1020600001108DF802208DF8033069460020FFF73B
:1020700091FF08BD10B54FF480642046FFF7D2FEF3
:10208000012802D12046FFF795FEBDE810404FF42D
:102090008000FEF73BBE000018B500200090104BFA
:1020A000CA201860532018600D491839086820F0BC
:1020B000A00008604FF40034086800F02000009A87
:1020C000521C0092009AA24201D00028F4D0086865
:1020D000800601D5012000E00020FF21196018BD15
:1020E0002428004008B5034A02EB800000900098C5
:1020F000016008BD5028004010B5FFF741F84720A7
:10210000FFF70EF8FFF776F80028FBD10120FEF765
:10211000D3FF064C20700020FEF7CEFF6070FFF763
:102120004BF8BDE81040052001F03CB9B800002094
:102130002DE9F04387B001210220FFF743FD4FF462
:10214000805801214046FFF759FD382705970225A1
:102150008DF8185000248DF81A4003208DF81900CE
:1021600001268DF81B60DFF8849005A94846FEF72C
:10217000D3FD052203214846FEF70CFE052204216B
:102180004846FEF707FE052211464846FEF702FEC6
:1021900001214046FFF740FD00214046FFF73CFD8E
:1021A000ADF800404FF48270ADF80200ADF8044085
:1021B000ADF80650ADF808602802ADF80A00ADF899
:1021C0000C70ADF80E400720ADF81000084C6946C1
:1021D000204600F04EF80121204600F033F8FF20A1
:1021E00000F008F807B0BDE8F083000000040240EA
:1021F0000030014070B505460A4C0221204600F02F
:102200002DF80028F9D02946204600F030F80121A9
:10221000204600F023F80028F9D0204600F025F8E9
:10222000C0B270BD0030014001460548028822F06E
:102230003802028002880A430280012100F002B8BD
:1022400000300140002904D0018841F040010180A4
:102250007047018821F0400101807047024600204C
:1022600012890A4200D0012070478089704781811D
:10227000704730B5028802F441530A884C88CD88F3
:1022800022438C882C4322430C8922434C892243CD
:102290008C892243CC8922431A430280828B22F408
:1022A00000628283098A018230BD00000CB50022E1
:1022B000019200922749086840F4803008604FF48A
:1022C000A043086800F4003000900198401C019081
:1022D000009810B901989842F3D10868800302D59C
:1022E0000120009000E000920098012831D11948A7
:1022F0004030026842F0805202601748026842F49F
:10230000404202601348083002680260026842F4EA
:1023100000420260026842F4A0520260021F0F4BAA
:1023200013600A6842F080720A600A689201FCD564
:102330000B4A40F205711160016821F00301016050
:10234000016841F0020101600168C1F381010229C5
:10235000FAD10CBD0038024000700040085440071C
:10236000003C024010B50120FEF7D2FB0720FEF72B
:10237000CFFBBDE810402020FEF7CABB4FF0E021A4
:10238000042804D0086920F0040008617047086937
:1023900040F004000861704710B505F009FB012802
:1023A00003D0BDE8104004F0DFBF10BD10B51248E7
:1023B000016841F4700101601048016841F00101B9
:1023C00001600E4A00210832116002680C4B1A406D
:1023D0000260031D0B4A1A60026822F48022026028
:1023E00006480C300160FFF761FF03494FF00060C1
:1023F0008039086010BD000088ED00E00038024020
:10240000FFFFF6FE1030002410B5FFF7ABFFB4203D
:1024100000F0C8FFFFF770FEFEF794FB014840682C
:1024200010BD0000B800002070B5164C40F22551D8
:10243000204600F039F800280ED0204600F0CEF8F3
:10244000C1B2114A1088030406D444044FF00003BB
:1024500007D50A2901D0138070BD40F400401080D8
:1024600070BD0D290AD0094DC0F30D042955401C3B
:1024700080B21080C728F3D9138070BD40F480402B
:10248000108070BD00100140FC000020C811002029
:10249000002904D0818941F40051818170478189EC
:1024A00021F400518181704770B5002440F66A1212
:1024B000C1F3421301F01F05012606FA05F2012BB4
:1024C0000CD0022B0DD0838A1340090A8E4000885D
:1024D00030400BB100B10124204670BD8389134008
:1024E000F3E7038A1340F0E710B540F66A13C1F32F
:1024F000421301F01F040121A140012B07D0022B40
:1025000007D014303AB102680A43026010BD0C30A3
:10251000F8E71030F6E702688A43026010BD000059
:102520007FB504460D46208A20F44051E8880843D0
:102530002082A08941F20C618843A9882A8911432D
:102540006A8902431143A181A08A20F44071A889BD
:102550000843A0826846FFF76DFB1E48844202D004
:102560001D48844201D1039800E00298A189090422
:1025700008D500EBC00101EB001029684900B0FB51
:10258000F1F007E000EBC00101EB001029688900C1
:10259000B0FBF1F06422B0FBF2F109010B096FF01E
:1025A00018056B4300EB8300A3891D044FF0320331
:1025B00007D503EBC000B0FBF2F000F007000843C2
:1025C00006E003EB0010B0FBF2F000F00F00084350
:1025D00020817FBD00100140001401408088C0F3BD
:1025E00008007047FEE7000070B5040300F004F92E
:1025F00000F0AAF80B4D002028602020FFF7FAFD1C
:10260000C4F30740FFF7F6FDC4F30720FFF7F2FD20
:10261000E0B2FFF7EFFD01202860BDE8704000F058
:1026200093B80000B88240427CB501210220FFF738
:10263000C9FA01214020FFF7C5FA4FF4804000900D
:1026400001248DF8044000208DF8060003208DF849
:1026500005008DF8074069460C48FEF75DFB8020B9
:1026600000900B4D69462846FEF756FB8021284610
:10267000FEF7A9FB07480460FFF75AFD0820FFF7A3
:10268000D3FD00F033F8044908807CBD000402400B
:1026900000180240B8824042F60000202DE9F041C7
:1026A00005460C461646104F0020C7F8B802032016
:1026B000FFF7A0FDC4F30740FFF79CFDC4F307201C
:1026C000FFF798FDE0B2FFF795FD002405E0FF203D
:1026D000FFF790FD2855641CA4B2B442F7D3012043
:1026E000C7F8B802BDE8F0810080404270B50D4DDA
:1026F00000242C609020FFF77DFD0020FFF77AFD7D
:102700000020FFF777FD0020FFF774FDFF20FFF7A3
:1027100071FD44EA0024FF20FFF76CFD20430121F6
:10272000296070BDB882404210B5064C0020206080
:102730000520FFF75FFDFF20FFF75CFD0121216011
:1027400010BD0000B882404210B5FFF7EDFFC00792
:10275000FBD110BD2DE9F05F80468A461546DFF8B3
:1027600094904FEA1A37CAF30B06C6F58054A54277
:1027700033D82C4631E0311819F80110FF2903D164
:10278000401C80B2A042F6D3A04214D23846FFF7D4
:102790002BFF002006E0821918F8001009F802103B
:1027A000401C80B2A042F6D359464FF480524846AE
:1027B00000F02EF804E022465146404600F028F88A
:1027C000A54214D07F1C0026A044A244281B85B239
:1027D0004FF48054A54200D82C464FEA073B4FF4F3
:1027E000805259464846FFF759FF0020CAE7BDE826
:1027F000F09F0000C801002010B5044C00202060AC
:102800000620FFF7F7FC0120206010BDB88240428F
:102810002DE9F04107460E461546F0B2C0F580742A
:10282000A54200D82C464FF4807807E02744264480
:10283000281B85B24446A54200D82C462246314684
:10284000384600F005F8A542F0D1BDE8F08100005F
:102850002DE9F04105460C461646FFF7CDFF114F16
:102860000020C7F8B8020220FFF7C4FCC4F30740F9
:10287000FFF7C0FCC4F30720FFF7BCFCE0B2FFF792
:10288000B9FC002404E0285DFFF7B4FC641CA4B28A
:10289000B442F8D30120C7F8B802BDE8F041FFF711
:1028A00053BF00000080404203B4019841000098EB
:1028B00050EAC12018BF04204A0D18BF40F00100A3
:1028C00040F2FF72B2EB515F08BF40F002000128F6
:1028D00008BF052002B0704770B5C1482DED020B4E
:1028E0002DED0E8B82B0119D25F000449FEDBEDBD7
:1028F0009FEDBFEB84423EDBA4F140511098A1F163
:102900007F6108430FD0BC48844202DC28D1109874
:1029100030B39DED100B02B0BDEC0E8B02B0BDE8E4
:10292000704000F069BC9DED100B53EC1D2B51EC79
:10293000100B05F0EDFC9DED100B41EC180B53EC6A
:102940001E2B51EC100B05F0E3FC53EC182B05F09B
:102950009DFA41EC100B02B0BDEC0E8B02B070BDC5
:102960000120FDF76CFF02B0BDEC0E8B02B0BDE89C
:10297000704000F055BCA1489FEDA18B844256DA0F
:102980009DED100BB4F1795F0ADA51EC100BFFF7F3
:102990008BFF042808BF00F053FC9DED100BDAE715
:1029A00053EC102B51EC100B05F0B2FC41EC190B61
:1029B00095480621B0EE490AF0EE690A784400F025
:1029C0009FFB53EC192B51EC100B05F0A1FC41ECD3
:1029D0001A0B8E48B0EE490AF0EE690A04217844D9
:1029E00000F08EFB53EC192B51EC100B05F090FC12
:1029F00053EC182B05F04AFA41EC100B51EC1A0B72
:102A000053EC102B05F0EAFACDE900019DED000B27
:102A100053EC102B9DED100B51EC100B05F078FCD6
:102A20009DED101B53EC112B05F030FAD2E09DED1B
:102A3000100B51EC100B01F039FA53EC182B05F088
:102A400065FD9FED730BCDE9000153EC102B9DED5F
:102A5000000B51EC100B05F05BFC41EC190B6E48C0
:102A60000621B0EE490AF0EE690A784400F048FB0E
:102A700053EC192B51EC100B05F04AFC41EC1B0BED
:102A80006648B0EE490AF0EE690A0421784400F085
:102A900037FB53EC192B51EC100B05F039FC53ECC0
:102AA000182B05F0F3F941EC1C0B51EC190B03F05A
:102AB000A3FD41EC180B5A489FED5BABA04222DC12
:102AC00053EC1C2B51EC1B0B05F088FACDE90001EF
:102AD0009DED000B51EC180B53EC102B05F018FC7E
:102AE00053EC182B05F0D2F953EC1A2B05F010FC1F
:102AF00053EC1D2B05F0E2FD53EC1E2B05F006FDFB
:102B000041EC100B5FE08DED008B002000909DEDFF
:102B1000000B51EC180B53EC102B05F0B7F99DEDA1
:102B2000000B41EC1E0B53EC102B51EC100B05F07D
:102B3000EFFB53EC192B05F0E9FC53EC1E2B05F0D1
:102B40004DFA41EC190B53EC1C2B51EC1B0B05F00F
:102B500045FA41EC1B0B53EC1A2B51EC190B05F009
:102B6000D7FB53EC1D2B05F0D1FC41EC190B53ECBA
:102B70001A2B51EC180B05F0CBFB53EC1B2B05F07B
:102B8000C7FB53EC192B05F099FD9DED000B41ECB3
:102B9000180B53EC1A2B51EC100B05F0B9FB9FED01
:102BA000249B53EC192B05F0B1FC41EC100B51ECBC
:102BB000180B53EC102B05F081FD53EC192B05F08D
:102BC000A5FC41EC100B002D3FF7C5AE51EC100BEE
:102BD00005F01EF941EC100BBDE6000000000000FE
:102BE0000000F03F00000000075C143326A6913C73
:102BF000182D4454FB21F93F0000F07F0000E03F16
:102C0000000000000000F03F18A0000026A0000017
:102C1000000000000000E03F6A9F0000789F000075
:102C20003333EF3F000000000000000000000040D0
:102C3000182D4454FB21E93F70B59B482DED020B44
:102C40002DED068B079D25F00044A04218DC974827
:102C5000844202DC0AD1069840B19DED060BBDEC22
:102C6000068B02B0BDE8704000F0C6BA002DCCBFA4
:102C70009FED8F0B9FED900BBDEC068B02B070BDEE
:102C80008F48A04215DD8F48A042D8BF4FF0FF34D7
:102C900058DD9DED060B51EC100BFFF705FE0428E7
:102CA00008BF00F0CDFA9DED060BBDEC068B02B01F
:102CB00070BD9DED060B51EC100B01F0F7F8CDE95E
:102CC000060181489FED828BA0423CDD8248A042F4
:102CD0001FDD00249FED82AB9DED060B53EC1A2BFC
:102CE00051EC100B05F0D2F89DED060B41EC190BE1
:102CF00053EC1A2B51EC100B05F00AFB53EC182B7C
:102D000005F0DCFC53EC192B05F068F9CDE9060160
:102D100049E09DED060B012453EC182B51EC100BF0
:102D200005F0B4F89DED060B41EC190B53EC182B94
:102D300051EC100B05F0C2FC53EC192B05F04EF9C9
:102D4000CDE906012FE06848A0421FDD02249FED77
:102D5000689B9DED060B53EC192B51EC100B05F005
:102D6000D7FA53EC182B05F091F89DED060B41ECCA
:102D7000180B53EC192B51EC100B05F09FFC53EC86
:102D8000182B05F02BF9CDE906010CE09DED060BA3
:102D9000032453EC102B9FED580B51EC100B05F056
:102DA0001DF9CDE906019DED060B53EC102B51ECFE
:102DB000100B05F0ADFA41EC180B53EC182B05F095
:102DC000A7FA41EC190B4E480621B0EE490AF0EE85
:102DD000690A784400F094F953EC182B51EC100B6D
:102DE00005F096FA41EC180B4648B0EE490AF0EEB1
:102DF000690A0521784400F083F953EC192B51EC52
:102E0000100B05F085FA41EC100B51EC180B53EC4C
:102E1000102B002C0EDA05F039F89DED061B53EC53
:102E2000112B05F075FA9DED061B53EC112B05F0E7
:102E30006DFB35E005F02AF89DED061B53EC112BD8
:102E400005F066FA41EC100B2F48784400EBC40003
:102E500090ED001B51EC100B53EC112B05F02EFCE8
:102E60009DED061B53EC112B05F028FC41EC100BDB
:102E70002648784400EBC40090ED001B51EC100B89
:102E800053EC112B05F042FB41EC100B002DA2BFBF
:102E9000BDEC068B02B070BD51EC100B04F0B8FF16
:102EA00041EC100B01E70000000010440000F07F2F
:102EB000182D4454FB21F93F182D4454FB21F9BF30
:102EC0000000DC3F0000203E0000F33F0000000057
:102ED000000000000000F03F0000E63F000000009E
:102EE00000000000000000400080034000000000DF
:102EF000000000000000F83F000000000000F0BFEC
:102F0000BA9C0000709C0000FA9B0000B29B00007D
:102F100070B56B4E2DED040B2DED028B82B0DDF8FC
:102F20001CC0DDE905235C422CF000411C4341EA52
:102F3000D474049D22F00040B44205D86C422C4366
:102F400040EAD474B4420BD99DED061B9DED040BF1
:102F500002B0BDEC028B04B0BDE8704000F056B981
:102F6000ACF14054A4F17F641C430BD0022404EA6A
:102F7000AC7444EAD27405439FED538B9FED542B00
:102F800007D015E09DED040B51EC100B00F0BAF9E1
:102F900042E0002C11BF012C9DED040B02B0BDECF2
:102FA000028B04BF04B070BD022C38D0032C3BD080
:102FB0000B439FED491B9FED4A0B0AD0B14218D13C
:102FC000B04209D121F0804120F080400791059066
:102FD0000FE0002A15DA10E0434B7B44002C08BFB9
:102FE00093ED000B0DD0012C10D0022C17D0032C28
:102FF0001AD0B0421DD1002A03DAB0EE410AF0EE39
:10300000610A02B0BDEC028B04B070BD93ED000B01
:1030100051EC100B04F0FCFE41EC100BF1E7B0EEAC
:10302000480AF0EE680AECE7B0EE420AF0EE620AF7
:10303000E7E7401A00153C28C8BF8DED000B19DCEE
:10304000BCF1000FBEBF10F13C0F9FED290B8DEDC1
:10305000000B0FDB9DED060B53EC102B9DED040BCD
:1030600051EC100B04F0BAFF00F020FF00F04AF919
:10307000CDE90001002C08BF9DED000BC1D0012C53
:1030800010D0022C9FED1C0B53EC102B9DED000B70
:1030900051EC100B0DD005F011FB53EC182B05F083
:1030A0000DFBB9E7019880F0004001909DED000B09
:1030B000A7E705F003FB53EC182B05F027FAABE765
:1030C0000000F07F00000000182D4454FB2109404F
:1030D000182D4454FB2109C0182D4454FB21F9BF7D
:1030E000182D4454FB21F93FE29A00000000000033
:1030F0000000000000000000075C143326A6A13C7D
:1031000070B504462DED028B4D1E00EBC500B0EEF0
:10311000408AF0EE608A90ED000B35F0060017D083
:1031200053EC182B51EC100B05F0F2F841EC100B9E
:103130006D1E04EBC50090ED001B51EC100B53EC21
:10314000112B04F0A3FE41EC100B35F00600E7D183
:10315000022D36D0042D1CD0062D1CBFBDEC028BD9
:1031600070BD53EC182B51EC100B05F0D1F894ED19
:103170000A1B53EC112B04F089FE53EC182B05F0BD
:10318000C7F894ED081B53EC112B04F07FFE41ECC3
:10319000100B53EC182B51EC100B05F0B9F894ED13
:1031A000061B53EC112B04F071FE53EC182B05F0A9
:1031B000AFF894ED040B53EC102B04F067FE41ECD8
:1031C000100B53EC182B51EC100B05F0A1F894EDFB
:1031D000021B53EC112B04F059FE53EC182B05F095
:1031E00097F894ED001B53EC112B04F04FFEBDEC4F
:1031F000028B41EC100B70BD10B553EC102B51EC51
:10320000100B04F043FE41EC100B10BD10B553EC55
:10321000112B51EC100B04F039FE41EC100B10BDDA
:103220009FED050B10B553EC102B51EC100B04F077
:10323000D5FE41EC100B10BD0000000000000000A6
:103240009FED050B10B553EC102B51EC100B05F056
:103250005FF841EC100B10BD0000000000000010F2
:1032600030380A2801D2012070470020704770478B
:10327000FEB505460E460024684600F09DFE00227D
:103280009FED1C1A6946012355F8220056F822705A
:10329000C01B00D5404200EE100AB8EEC00A20EE76
:1032A000010A01EB8200D0ED000AF5EEC00AF1EE52
:1032B00010FA10D0C0EE201AB7EE000A31EEC00AA4
:1032C0000D4FB0EEC00A10EE100AB8420DDD03FA41
:1032D00002F0044309E010EE100A084F3844084F8A
:1032E000B84202D303FA02F00443521C032ACBDB98
:1032F0002046FEBD00008037295C0F3E666666C131
:103300009A99D90010B541EC100BFFF795FC51ECE0
:10331000100B10BD064C0649891C481EFDF7AFFC7A
:10332000FFF772F86060FA2003F0E2FCF3E70000B8
:103330000000002070B50446E07800F0C00500F001
:103340003F006178094EC90707D0C30800F00701A4
:10335000491C32680AB1184690476078000703D5C7
:10336000716809B1A8098847002070BDB801002024
:1033700010B504460420FFF701F8094804704FF423
:103380007A714C43012141804FF0E021086940F0FF
:10339000020008614C61086940F00100086110BD3D
:1033A000F800002070B5044604F002FB01280CD0A0
:1033B000094D6888844203D3B4FBF0F003F098FC15
:1033C0006888B4FBF0F100FB11444FF47A7060435D
:1033D000BDE8704000F002B8F800002070B5002190
:1033E0004FF0E0256C690A4A12785043AB69AA692C
:1033F0009A42FCD003D2A3EB0203194403E0A4EBEE
:1034000002063344194413468142F0D370BD0000D4
:10341000F800002008B500280CD020208DF800000E
:1034200028208DF8010030208DF8020038208DF81A
:10343000030004E0A32204216846FDF778F96A46F8
:10344000042140F69E2002F0AFFA01F033FF08BDE0
:103450003EB5044602208DF80000CA208DF8010018
:10346000E3208DF8020009208DF803006A4604214C
:10347000682002F099FAA3208DF80000610609D5B2
:10348000C0218DF80110C8218DF80210C2218DF8DD
:10349000031005E08DF801008DF802008DF803009F
:1034A00014F4C07F09D0C4218DF80410CC218DF80C
:1034B0000510C6218DF8061005E08DF804008DF882
:1034C00005008DF806008DF807008DF808008DF8CE
:1034D00009006A460A2140F6A72002F065FAA00713
:1034E0004FF0D80503D020208DF8000001E08DF8C2
:1034F00000506A46012140F6B62002F055FAA006B7
:1035000003D5012000F09AF802E0002000F096F8C0
:1035100014F4C07F20D0E0050CD5B2208DF8000057
:103520008B208DF80100B6208DF802009B208DF8CD
:1035300003000BE0B0208DF8000080208DF8010022
:10354000B4208DF8020090208DF803006A46042113
:1035500040F6A22002F028FAE0074FF40B6323D0D4
:10356000F8208DF800006A460121184602F01CFA86
:10357000FA21072000F0ACFB072000F07BFB0120C4
:1035800000F094FB642000F071FC4FF4FA7000F03E
:103590007DFCC821274800F035FB282000F04AFBBD
:1035A0000A2000F057FB06E08DF800506A46012122
:1035B000184602F0F9F9A00703D5D9208DF80000CC
:1035C00001E08DF800506A46012140F23D7002F0A2
:1035D000EBF9600703D5012000F05CF802E0002061
:1035E00000F058F8E00603D50120FFF713FF02E0D2
:1035F0000020FFF70FFF104D44F00800688101F034
:1036000059FE0020A873600601D50620A87314F4A3
:10361000C07F02D0A87B801DA87314F0140F02D0C5
:10362000A87B1030A873A00702D0A87B001DA87348
:1036300000203EBD09E3CA02B80100200EB54FF4D8
:10364000976300280CD00DA0D0E900128068CDE966
:10365000001202906A460921184602F0A5F90EBD33
:1036600009A0D0E900128068CDE9001202906A46F4
:103670000921184602F098F90EBD0000B8AAB38DD2
:10368000B4980D355D000000B8AAAAAAB088C3C5D9
:10369000C700000008B500280CD0C0208DF800003D
:1036A000C2208DF80100C4208DF80200C6208DF8DC
:1036B000030004E08B2204216846FDF738F86A46CF
:1036C000042140F6982002F06FF901F0F3FD08BDE7
:1036D000C8234FF48062024940F6F63001F09ABCEC
:1036E000D88900082DE9FF4F8DB01646DDE91A5242
:1036F000074688460024A146A5F80090DFF864B18B
:1037000005A99BF80E0001F047FD4FF0FF3A18B1F4
:10371000504611B0BDE8F08FBBF80A3013F0140F1B
:1037200061D09DF817009DF814109DF8162040EA0E
:1037300001609DF81510090441EA02210843306038
:103740009DF81B109DF818209DF81A4041EA02616F
:103750009DF81920120442EA0422114371609DF879
:103760001F209DF81C409DF81EC042EA04629DF88F
:103770001D40240444EA0C242243B2609DF82340F7
:103780009DF820C09DF822B044EA0C6C9DF82140C1
:10379000240444EA0B244CEA040CC6F80CC01024A0
:1037A0000014019008140290101403904FEA2C406A
:1037B000049001980299404301FB01010398049A87
:1037C000404302FB02000844A0F17060B0F1007FAA
:1037D00005D901F06FFDA5F80090504699E72888BB
:1037E00040F480702880590605A818D50219065D96
:1037F000517841EA0621A8F80010D178967841EA7C
:103800000621A8F802105179127941EA0221A8F89C
:103810000410A41DE4B2298841F00801298013F4A2
:10382000C07F15D00119065D4A7842EA06223A8027
:10383000CA788E7842EA06227A804A79097942EA81
:103840000121B980A41DE4B2298841F070012980CA
:10385000990702D02044FFF76DFD109801F0FEF8A3
:10386000002056E7B801002030B587B0044668460E
:1038700001F050FABDF80000420CC1033C48038936
:1038800003F0030054F820000490580702D5049870
:1038900040420490C3F3C10054F8200005909806FC
:1038A00002D5059840420590C3F3811054F82000DA
:1038B0000690D80502D50698404206900498A0FBD1
:1038C0000145C31703FB015300FB0230830043EAA9
:1038D000947004900598A0FB0145C31703FB0153A6
:1038E00000FB0230830043EA947005900698A0FB29
:1038F0000145C31703FB015100FB0210810041EA9F
:10390000947006900498000E8DF804000498000C42
:103910008DF805000498000A8DF8060004988DF8CB
:1039200007000598000E8DF808000598000C8DF82A
:1039300009000598000A8DF80A0005988DF80B001B
:103940000698000E8DF80C000698000C8DF80D00FE
:103950000698000A8DF80E0006988DF80F0001AA4F
:103960000C214FF4257002F01FF807B030BD0000A5
:10397000B801002030B585B0044616A1D1E9000297
:103980008968CDE9032102904FF0FF35C82C02D998
:10399000284605B030BDC820B0FBF4F1491E080A26
:1039A0008DF800008DF801106A46022140F21620C1
:1039B00001F0FAFF08B12846EBE702AA0C2140F615
:1039C000C12001F0F1FF08B12846E2E704488481F4
:1039D0000020DEE7FEF2ABC4AAF1DFDFBBAFDFDF22
:1039E000B80100201FB53F49098901F0030250F8D2
:1039F000222001924A0702D5019A52420192C1F354
:103A0000C10250F8222002928A0602D5029A52423E
:103A10000292C1F3811250F822000390C80502D52A
:103A20000398404203903048019981FB00218B00AC
:103A300043EA92710191029981FB00218B0043EAD4
:103A400092710291039981FB0001800F40EA81008D
:103A500003900198000E8DF800000198000C8DF87D
:103A600001000198000A8DF8020001988DF803000A
:103A70006A4604214FF4747001F096FF4FF0FF3452
:103A800010B1204604B010BD0298000E8DF8000061
:103A90000298000C8DF801000298000A8DF80200CF
:103AA00002988DF803006A4604214FF4757001F006
:103AB0007BFF08B12046E5E70398000E8DF8000073
:103AC0000398000C8DF801000398000A8DF802009D
:103AD00003988DF803006A4604214FF4767001F0D4
:103AE00063FFCFE7B801002009E3CA0230B587B011
:103AF00004463FA0006804903EA0006803903EA0EA
:103B0000006802903DA00068019004F0030004AB3F
:103B1000195C8DF81810C4F3C102995C8DF8191066
:103B2000C4F381115B5C8DF81A3003AB185C8DF81F
:103B30001400985C8DF81500585C8DF8160006AAE4
:103B4000032140F2264001F02FFF4FF0FF3510B166
:103B5000284607B030BD05AA032140F22A4001F0F3
:103B600023FF08B12846F4E70298069001980590D3
:103B700060070BD59DF8180040F001008DF8180083
:103B80009DF8140040F001008DF81400A0060BD53C
:103B90009DF8190040F001008DF819009DF81500FE
:103BA00040F001008DF81500E0050BD59DF81A00D6
:103BB00040F001008DF81A009DF8160040F0010059
:103BC0008DF8160006AA03214FF4886001F0ECFE80
:103BD00008B12846BDE705AA032140F2314001F0B3
:103BE000E3FE08B12846B4E7054804810020B0E7A9
:103BF0004CCD6C000CC92C0036567600264666006B
:103C0000B801002008B54FF47A7290FBF2F04843F7
:103C1000010E8DF80010010C8DF80110010A8DF8CD
:103C200002108DF803006A4604214FF4AE7001F0D3
:103C3000BBFE08BD08B50521B0FBF1F0010A8DF807
:103C400000108DF801006A4602214FF4AD7001F0BA
:103C5000ABFE08BD08B50521B0FBF1F0010A8DF8F7
:103C600000108DF801006A4602214FF4AC7001F09B
:103C70009BFE08BD08B500210091C10701D030218D
:103C80000091810704D59DF8001041F00C010091CE
:103C9000400704D59DF8000040F0030000906A46FC
:103CA00001214FF4A47001F07FFE08BD08B5002883
:103CB0000BD0042800D90420401E00906A46012140
:103CC00040F24F1001F070FE08BD0120F4E7000043
:103CD00070B504462DED028B82B060074FF0FF36C1
:103CE00002D0B1F5C86F04D9304602B0BDEC028BEA
:103CF00070BD00EE101AB8EE400ADFED530A80EEF8
:103D0000208A684600F0E4FF9DF80010022907D0E1
:103D1000042918D0082929D010293AD03046E4E7E0
:103D20009FED4A0A28EE000ABCEEC00A10EE100A07
:103D300081B29FED470A28EE000ABCEEC00A10EEE1
:103D4000100A82B237E09FED430A28EE000ABCEE6B
:103D5000C00A10EE100A81B29FED3F0A28EE000A59
:103D6000BCEEC00A10EE100A82B224E09FED3B0ABE
:103D700028EE000ABCEEC00A10EE100A81B29FEDD8
:103D8000380A28EE000ABCEEC00A10EE100A82B211
:103D900011E09FED340A28EE000ABCEEC00A10EED6
:103DA000100A81B29FED300A28EE000ABCEEC00A6C
:103DB00010EE100A82B2080A8DF804008DF8051082
:103DC000100A8DF806008DF80720E00701AD11D02C
:103DD00001AA02214FF4EA7001F0E6FD08B1304675
:103DE00083E7AA1C02214FF4927001F0DDFD08B1B7
:103DF00030467AE7A00711D501AA02214FF4EC70F2
:103E000001F0D2FD08B130466FE7AA1C02214FF441
:103E1000947001F0C9FD08B1304666E7600711D51E
:103E200001AA02214FF4EE7001F0BEFD08B1304648
:103E30005BE7AA1C02214FF4967001F0B5FD08B1B2
:103E4000304652E7002050E700004843000080461B
:103E500000004046000000460000C04500008045CC
:103E600000004045000000450000C04408B50521A1
:103E7000B0FBF1F0010A8DF800108DF801006A46E0
:103E800002214FF4EF7001F08FFD08BD08B5052148
:103E9000B0FBF1F0010A8DF800108DF801006A46C0
:103EA00002214FF4ED7001F07FFD08BD82B0CDE935
:103EB000000121F0004001909DED000B02B051EC9B
:103EC000100B704788B0254C254E04F150054FF477
:103ED0007A773EE0012060610020A061A069401C6B
:103EE000A0611E4900205031FDF7AAFFD4E90D2141
:103EF000E06B95F802C06B7895F80080002800DA36
:103F00004042CDE9063CCDE90408002900DA4942E7
:103F1000002A00DA5242A3786068CDE90221CDE997
:103F200000300E4863780FA17530A269FCF752FA91
:103F3000A1692F22491EC1EB011000EB411021693C
:103F40000844811905487530FEF704FC384602F034
:103F5000CFFEA0696428C1D1BCE7000000000020AA
:103F6000C0BDF0FF726563253033643A253032649A
:103F700043253032642525253035646C75782070F2
:103F80003A25303364723A25303364793A25303338
:103F9000642D253032643A253032643A253032645B
:103FA0000000000003490A885206FCD5C2B28A808C
:103FB00070470000001001407CB50546284801AB61
:103FC000042240680D210078FDF70CFD08B10720A0
:103FD0007CBD9DF807009DF80420C0F3011102F09C
:103FE000E00241EAD2018DF800109DF80520C0F3EF
:103FF000810102F0E00241EAD2018DF801109DF842
:10400000061000F0030001F0E00140EAD1008DF855
:10401000020000219FED131ADFED131A9FED130A22
:104020006C46605C20B105EB8103C3ED001A0AE029
:1040300005EB810080ED001A0BE0D3ED000A60EE85
:10404000800AC3ED000A625C521E12F0FF02625445
:10405000F3D1491CC9B20329E3D300207CBD000081
:10406000C0000020000000007B14AE3E1D5A843FBB
:104070002DE9F04788B005460C46924601208DF8A0
:10408000140000278DF81570DFF8B88305AB022205
:10409000D8F80000817CD8F804000078FDF7DAFC3D
:1040A0004FF0FF3918B1484608B0BDE8F087C82086
:1040B000FFF778F98DF81470D8F8000005AB0122ED
:1040C000C17BD8F804000078FDF7C4FC08B148466D
:1040D000EAE7D8F8000005AB01224179D8F80400DE
:1040E0000078FDF7B7FC08B14846DDE7D8F80000D6
:1040F00005AB0122817CD8F804000078FDF7AAFC0A
:1041000008B14846D0E7D8F8000005AB0122C17DD0
:10411000D8F804000078FDF79DFC08B14846C3E7D5
:10412000D8F8000005AB01220179D8F80400007826
:10413000FDF790FC08B14846B6E70C268DF81460F0
:10414000D8F8000005AB01220179D8F80400007806
:10415000FDF780FC08B14846A6E70F20FFF722F9DB
:10416000D8F82800407A8DF81400D8F8000005AB84
:1041700001228178D8F804000078FDF76BFC08B1C3
:10418000484691E7D8F82800007A8DF81400D8F84E
:10419000000005AB01224178D8F804000078FDF753
:1041A00059FC08B148467FE7BAF1000F07D0D8F8AC
:1041B0002800807A40F0E0008DF8140004E0D8F880
:1041C0002800807A8DF81400D8F8000005AB012291
:1041D0008179D8F804000078FDF73CFC08B1484626
:1041E00062E7BAF1000F07D0D8F82800C07A40F093
:1041F000E0008DF8140002E018208DF81400D8F8C3
:10420000000005AB0122C179D8F804000078FDF761
:1042100021FC08B1484647E7BAF1000F02D0C82098
:10422000FFF7C0F840208DF81400D8F8000005AB67
:1042300001220179D8F804000078FDF70BFC08B1E1
:10424000484631E778208DF81400D8F8000005AB17
:1042500001224179D8F804000078FDF7FBFB08B192
:10426000484621E73220FFF79DF88DF81470D8F802
:10427000000005AB01224179D8F804000078FDF771
:10428000E9FB08B148460FE7D8F8000005AB022269
:10429000817AD8F804000078FDF7A4FB08B14846FD
:1042A00002E79DF815009DF8141040EA0120B0FBCC
:1042B000F6F0C6B2AF606F602F60A76067602760DE
:1042C000002756E0D8F8000005AB0C22C17AD8F8D8
:1042D00004000078FDF786FB08B14846E4E69DF847
:1042E00015009DF8141040EA012002B2ADF80C2030
:1042F0009DF817009DF8161040EA012000B2ADF8B5
:104300000E009DF819109DF8183041EA032109B2FA
:10431000ADF8101023681A4422606268104460608F
:10432000A0680844A0609DF81B009DF81A1040EAA0
:10433000012000B2ADF804009DF81D109DF81C206E
:1043400041EA022109B2ADF806109DF81F209DF840
:104350001E3042EA032212B2ADF808202B6818443E
:104360002860686808446860A8681044A8607F1CDA
:10437000FFB2B742A6D328688322C117090441EAD5
:10438000104100040023FBF7F4FF32460023FBF743
:10439000F0FF286068688322C117090441EA1041D0
:1043A00000040023FBF7E5FF32460023FBF7E1FFA3
:1043B0006860A8688322C117090441EA104100041B
:1043C0000023FBF7D6FF32460023FBF7D2FFA8609D
:1043D00020684FF40065C117090441EA1041000448
:1043E0002A460023FBF7C5FF32460023FBF7C1FF37
:1043F000206060682A46C117090441EA10410004A0
:104400000023FBF7B6FF32460023FBF7B2FF6060E4
:10441000A0682A46C117090441EA1041000400239C
:10442000FBF7A7FF32460023FBF7A3FFA06000289D
:1044300003DDA0F58030A06002E000F58030A060D0
:10444000002031E6C0000020F8B505460E460024E5
:104450002E486B46032240680D210078FDF7C2FA12
:1044600008B10720F8BD9DF8000000F01F008DF88E
:1044700000009DF8010000F01F008DF801009DF87C
:10448000020000F01F008DF802000022DFED201A6C
:104490006B46012155F8220056F82270C01B00D54A
:1044A000404200EE100AB8EEC00A60EE210A985CA5
:1044B000E8B1B3EE090A9FED171A01E020EE010AF8
:1044C000985C401E10F0FF009854F7D180EE801ADF
:1044D000B7EE000A31EE400A0F4FB0EEC00A10EE00
:1044E000100AB8420DDD01FA02F0044309E010EEB3
:1044F000900A0A4F3844B0F1D97F02D901FA02F08C
:104500000443521C032AC5DB2046F8BDC00000202E
:104510000000803754E3853F295C0F3E0000E0BE79
:1045200000B50246104600F00DF80346D01C00F01E
:1045300009F843EAC003901D00F004F843EA801034
:1045400080B200BD90F90010002902DD4FF000009C
:10455000704702DA4FF00400704790F9011000290B
:1045600002DD4FF00100704702DA4FF0050070479E
:1045700090F90200002802DD4FF00200704702DAD5
:104580004FF0060070474FF0070070472DED028B8B
:1045900084B08A4C00270C2640F2CF154FF6FF78E6
:1045A000B2EE048A4FF00A094FF0180B04F14C0ADE
:1045B000B2E0404260638DE8E00043462D223421A2
:1045C0000020FDF7B3F807E08DE8E00043462B221A
:1045D00034210020FDF7AAF8A06B00280ADA404237
:1045E000A0638DE8E00043462D2234213520FDF7FD
:1045F0009DF807E08DE8E00043462B22342135206A
:10460000FDF794F8E06B00280ADA4042E0638DE899
:10461000E00043462D2234216A20FDF787F807E0A9
:104620008DE8E00043462B2234216A20FDF77EF816
:10463000283494ED000A20EE080ABDEEC00A10EE00
:10464000100A90FBF9F109FB1100A06194ED010A39
:1046500020EE080ABDEEC00A10EE100A90FBF9F138
:1046600009FB1100E06194ED020A20EE080ABDEE9C
:10467000C00A10EE100A90FBF9F109FB110020624C
:10468000CDE900850296A089032382B234210C2053
:10469000FDF7DAF8CDE900850296208B012382B27E
:1046A00034212620FDF7D0F8CDE900850296208A36
:1046B000032382B234214120FDF7C6F8CDE90085FD
:1046C0000296A08B012382B234215B20FDF7BCF857
:1046D000CDE900850296A08A032382B23421782096
:1046E000FDF7B2F8CDE900850296208C283C82B215
:1046F000012334219220FDF7A7F8CDE901B72F4A15
:1047000048F21F436C32482135200095FDF7DEF852
:104710004FF4FA7002F0ECFA284900204C31FDF712
:104720008FFB9AF80200009024489AF801309AF81A
:10473000002023A16C30FBF74DFECDE900850296E9
:104740000223627812210120FDF77EF8CDE9008571
:1047500002960223A27812213920FDF775F8CDE9DF
:1047600000850296A088052382B212216E20FDF7F3
:104770006BF894ED0A0A20EE080ABDEEC00A10EEAE
:10478000100A90FBF9F0606394ED0B0A20EE080A22
:10479000BDEEC00A10EE101A91FBF9F1A16394ED81
:1047A0000C0A20EE080ABDEEC00A10EE101A91FBAA
:1047B000F9F1E1630028BFF607AFFAE60000002038
:1047C000253032643A253032643A253032640000B4
:1047D0002DE9FE4F4FF44070FDF7E4F9A820FEF7F5
:1047E000C7FD4FF4E13001F0B3FFFDF7DBF8FCF754
:1047F0002BFDFDF75DF9FCF799FE40F2CF19002182
:104800008023A0220846CDF80090FCF71EFEFCF79E
:1048100019FC0120FCF784FCFCF710FB00F00EFAF9
:10482000FDF702FF00240C254FF6FF764FF4784782
:104830004FF4C8780BE0CDE9006500213B4669A242
:1048400008460294FDF742F84046FEF7ABFDFCF740
:10485000C5F90028EFD14FF4FA784EF6147A17E034
:10486000CDE9006500213B4661A208460294FDF7B0
:104870002DF84046FEF796FDCDE9006500213B4648
:104880005EA208460294FDF721F84046FEF78AFD35
:10489000FDF72CFF5045E3D11123A022194600203B
:1048A0000096FCF77AFD2223A022194600200096EC
:1048B000FCF773FD3323A022194600200096FCF775
:1048C0006CFD4423A022194600200096FCF765FDEC
:1048D00033228023002110460096FCF75EFD6822FB
:1048E0004423002110460096FCF757FD5523332240
:1048F000194600200096FCF750FDCDE900950021F7
:10490000334642A208460294FCF7E0FFCDE9009549
:10491000334640A2002135200294FCF7D7FFCDE9B1
:10492000009533463DA200216A200294FCF7CEFF99
:10493000CDE9009533463CA2232100200294FCF7E8
:10494000C5FFCDE90095334639A2232135200294D5
:10495000FCF7BCFFCDE90095334637A223216A203E
:104960000294FCF7B3FFCDE90095334633A245210D
:1049700000200294FCF7AAFF1020CDE900904FF42C
:10498000FC6330A2562102940020FCF79FFFCDE982
:10499000009533462E2234211F200294FCF7C6FED8
:1049A000CDE9009533462E22342154200294FCF7A1
:1049B000BDFECDE9009533462E2234218B20029492
:1049C000FCF7B4FE20480121CDE900100A020023C3
:1049D0001EA1214802F0BCFF02F044FB0020BDE80C
:1049E000FE8F00004448543131204552524F52004E
:1049F000464C415348204552524F5200504C45417D
:104A0000534520434845434B2100000054454D5039
:104A10002843290048554D4928252900494C4C5523
:104A20004D286C782900000050495443480000008C
:104A3000524F4C4C00000000594157005553415211
:104A4000540000004F4E2100540000207374617226
:104A5000745F7461736B0000696600087047000042
:104A6000044A111F081F00F037F8FA2002F040F93D
:104A7000F6E70000300000202DE9F041002620F08C
:104A80000104144D95F82400002802D00020BDE850
:104A9000F081A97A4FF0FF3839B12F7C2140297479
:104AA000A14200D0464624B901E04046EFE7287D08
:104AB00018B1012001F066FD02E0002001F062FD66
:104AC0002CB100F0F7FB10B12F744046DFE7304601
:104AD000DDE70000C000002070B506462DED0C8B10
:104AE0008EB00D461446F7EE00BA07A808A9CDE926
:104AF00000100DAB03AA09A90BA8FEF7F3FD20B126
:104B000001200EB0BDEC0C8B70BDBDF82000C005BF
:104B10007ED59DED030AF8EEC00A9FED450A60EED2
:104B2000809ADDED040AF8EEE00A20EE808ADDEDE1
:104B3000050AF8EEE00A60EE808ADDED060AF8EE7E
:104B4000E00A20EE809AB8EE000AB0EE00CA28EE25
:104B500000BA69EE8CCA2BEE090A0CEEA80A10EE18
:104B6000100A03F095FE41EC100BFDF7B5FE9FED2A
:104B700031AB51EC100B53EC1A2B03F0C9FB03F0D3
:104B800053F930602BEE080A28EE8CDA0DEE680A35
:104B900030EE2B0A10EE100A03F07AFE2DEE090A11
:104BA00041EC1B0B0CEE880A10EE100A03F070FEAD
:104BB00041EC100BB0EE4B1AF0EE6B1AFEF7A8F9B1
:104BC00053EC1A2B51EC100B03F0A2FB03F02CF961
:104BD000286029EEA90A08EE080A08EEE80A09EE9C
:104BE000490A10EE100A03F053FE28EE280A41ECA1
:104BF0001B0B09EE890A20EE0C0A10EE100A03F0D6
:104C000047FE41EC100BB0EE4B1AF0EE6B1A00E0D1
:104C10000CE0FEF77DF953EC1A2B51EC100B03F06E
:104C200077FB03F001F9206000206AE7022068E7C3
:104C3000000080306666666666A64C4010B5FCF7DC
:104C4000FDF800F011F990BB782000F055FEC0B2DD
:104C500008B1012010BD7820FFF70EFFC0B208B1E7
:104C6000022010BD642000F005FEC0B208B1032090
:104C700010BDFEF72DFDC0B208B1042010BD1348D1
:104C8000FFF74EFCFEF732FFC0B208B1052010BDA1
:104C900040F27310FEF7DCFBC0B208B1062010BD75
:104CA0006420FEF767FEC0B210B1072010BD0BE014
:104CB00001F024FC08B10820F8E7012000F0F2FC24
:104CC000C0B208B10920F1E70020EFE7EC000020B6
:104CD0000F4A517A002908D0012909D002290AD0A7
:104CE00003290BD04FF0FF3070470221017007E01D
:104CF0000421017004E00821017001E0102101701D
:104D0000D17C11B10178490001700020704700008A
:104D1000C0000020114A517A002908D001290AD088
:104D200002290CD003290ED04FF0FF3070474FF40A
:104D3000804101800AE041F69C71018006E04FF459
:104D40008051018002E04FF400610180D17C11B1FB
:104D5000018849080180002070470000C000002041
:104D60000249097C0170002070470000C00000204B
:104D70000E49097A002909D001290AD002290CD04C
:104D800003290ED00021018000207047FA21018004
:104D9000FAE74FF4FA710180F6E74FF47A71018077
:104DA000F2E74FF4FA610180EEE70000C000002056
:104DB0001049097A002908D001290BD002290ED008
:104DC000032911D04FF0FF3070479FED0B0A80EDA3
:104DD000000A0DE09FED090A80ED000A08E09FED52
:104DE000080A80ED000A03E09FED060A80ED000A44
:104DF00000207047C00000200000034300008342F1
:104E000033330342333383410F49C97A072917D219
:104E1000DFE801F01604070A0D101300BC21018021
:104E200010E0622101800DE02A2101800AE01421B6
:104E3000018007E00A21018004E00521018001E0F2
:104E40000021018000207047C0000020054991F832
:104E50002420002A02D04FF0FF307047C98901801A
:104E600000207047C00000202DE9FC4180208DF813
:104E70000000544C6B4601222068817C60680078F9
:104E8000FCF7E8FD4FF0FF3610B13046BDE8FC817D
:104E90006420FEF787FA00258DF8005020686B46E5
:104EA0000122817C60680078FCF7D4FD08B13046AF
:104EB000ECE720686B460622817D60680078FCF78D
:104EC00091FD08B13046E1E79DF805009DF803101B
:104ED000C007400F01F0010140EA41019DF80100C7
:104EE00000F001000143012761B1012906D0022928
:104EF00006D035A0FBF762FA3046C7E7E77414E046
:104F0000E57412E020686B460122C1786068007881
:104F1000FCF768FD08B13046B8E79DF8000000F0E6
:104F20000F0008B3042824D0E574FF2104F80A1FF9
:104F300004F8021C04F8011C61704FF6FF70A08099
:104F4000A1712172A77027766576E572A572E5607A
:104F500025616561A576E576A5834FF4FA6000F0DA
:104F6000DFFB58B1304691E72148FBF727FA30467E
:104F70008CE720A0FBF722FAE774D6E7022000F0C6
:104F8000CBFA08B1304681E72A2000F035FC08B1A1
:104F900030467BE7322000F06DFC08B1304675E703
:104FA0000020FFF769FD08B130466FE7002000F0F0
:104FB000EDFA08B1304669E7002000F09DFC0020C2
:104FC00064E70000C0000020556E737570706F724A
:104FD00074656420736F6674776172652070726F98
:104FE00064756374207265762025642E0A000000C3
:104FF000E0CA000848616C662073656E7369746965
:1050000076697479207061727420666F756E642E93
:105010000A0000002DE9FF4F85B005460E461746F1
:10502000DFF8A0804FF0FF3998F82500002803D062
:10503000484609B0BDE8F08F0EB1002425E048468F
:10504000F7E7281B102800DD10201FFA80FA30191E
:10505000834602465146204600F0A6FC08B1484669
:10506000E7E701AA5146204600F0ECF808B14846AF
:10507000DFE75846524601A9FBF7E8FA10B16FF096
:105080000100D6E704EB0A0084B2AC42D9D3380A57
:105090008DF800008DF80170D8F800006B460222F0
:1050A000817ED8F804000078FCF7D4FC08B14846AB
:1050B000BFE7012088F825000898A8F826000020FE
:1050C000B7E70000C00000202DE9F84304464FF088
:1050D000FF37282C02D93846BDE8F8832D4D4FF014
:1050E000070900268CB1012000F056FB20208DF826
:1050F00000004FF00108012C1CD0052C20D88DF8A1
:105100000180052000F078FB29E0002000F044FB3E
:105110008DF800608DF8019028686B460222817C32
:1051200068680078FCF796FC08B13846D4E72E751D
:105130000020D1E78DF80160052000F05DFB0EE056
:10514000142C06D802208DF801000A2000F054FB30
:1051500005E003208DF80100142000F04DFB9DF8C0
:10516000010009EB80108DF8010028686B460222CF
:10517000817C68680078FCF76DFC08B13846ABE7C5
:105180000820A8722E7385F814800020FFF774FCA5
:105190000020A1E7C00000202DE9F843054689461C
:1051A0001746274E4FF0FF3896F8240000280DD000
:1051B000B07A68B130686B460222817A70680078F4
:1051C000FCF710FC30B14046BDE8F8834046FBE7F1
:1051D0004046F9E79DF801009DF8001040EA0124DF
:1051E000AC4203D2002038704046EDE77068418839
:1051F000B4EB510F12D9316800786B46497C01221B
:10520000FCF7F0FB08B14046DEE79DF80000C00661
:1052100004D500F04FF86FF00100D5E73068EAB22E
:105220004B46C17A70680078FCF7DCFB08B1404659
:10523000CAE7B4FBF5F0401E38700020C4E7000058
:10524000C00000202DE9F8430E4690464FF0FF3590
:10525000B8F1000F10D0164FB97A79B1010A8DF864
:105260000010C4B28DF80140A0197C6861898842A1
:1052700006D92846BDE8F8832846FBE72846F9E723
:1052800038686B460222017E2078FCF7E3FB08B108
:105290002846EFE73868F2B24346417D78680078E7
:1052A000FCF7A0FB08B12846E4E70020E2E7000095
:1052B000C0000020F8B5594D4FF0FF36A87A0028FD
:1052C0000CD00024009428686B460122C17B6868DA
:1052D0000078FCF7BFFB18B13046F8BD3046F8BD8A
:1052E00028686B460122417968680078FCF7B2FBB8
:1052F00008B13046F8BD28686B460122017968681C
:105300000078FCF7A7FB08B13046F8BD95F82400FB
:1053100090B30C20009028686B46012201796868E0
:105320000078FCF797FB08B13046F8BD3220FEF755
:1053300039F8C0200090A87AC00701D0E020009082
:1053400028686B460122017968680078FCF782FBC7
:1053500008B13046F8BD687C10B10220009000E032
:10536000009428686B460122C17B68680078FCF7CE
:1053700071FB10B13046F8BD0BE0009428686B4615
:105380000122417968680078FCF764FBB8B33046C5
:10539000F1E70420009028686B46012201796868D3
:1053A0000078FCF757FB08B13046E4E7A87C78B9F1
:1053B000A87AC0070CD06020009028686B460122B4
:1053C000017968680078FCF745FB20B13046D2E7E8
:1053D00040200090F1E73220FDF7E4FF687C10B137
:1053E0000120009000E0009428686B460122C17BF8
:1053F00068680078FCF72EFB10B13046BBE70BE085
:105400002868064B01224179686810330078FCF760
:1054100021FB08B13046AEE70020ACE7C000002019
:105420002DE9F0438BB0814688463A4D95F824002B
:10543000002804D0002000F035F9012600E0002605
:1054400002A8FFF795FC04A8FFF742FC6846FFF7A7
:10545000DBFC01A8FFF7FAFCAF7A03A8FFF780FC9A
:105460000024002241464846FEF702FE10B1641CAB
:10547000022CF6DB022C19D00024012205A908A871
:10548000FEF7F6FD10B1641C022CF6DB022C0FD0E7
:1054900005A94046FDF7ECFE00F0FF0808A94846C4
:1054A000FEF7D2FFC0B2002420B104E0002407E0E0
:1054B000002405E00124B8F1000F01D144F00204FA
:1054C000FF2028726872E8724FF6FF71E981A872B6
:1054D000287401202873BDF8080000F021F99DF818
:1054E000100000F019F8BDF8000000F085F9BDF8D3
:1054F000040000F0BFF9384600F0FEF99DF80C00FA
:10550000FFF7BAFA16B1012000F0CCF80BB0204634
:10551000BDE8F083C000002038B51B4C4FF0FF35CC
:10552000A17A002909D0022809D004280AD0082825
:105530000BD010280CD0284638BD284638BD002096
:10554000009007E00820009004E01020009001E0A7
:1055500018200090607A9DF80010B0EBD10F01D1B7
:10556000002038BD20686B460122C1796068007850
:10557000FCF770FA08B1284638BD9DF80000C00855
:105580006072002038BD0000C0000020F8B504465D
:10559000434DA87CA04201D10020F8BD40484FF007
:1055A000FF36D0E90010ACB3097900786B460122D0
:1055B000FCF718FA08B13046F8BD9DF8000020F05D
:1055C0002000009028686B46012201796868007805
:1055D000FCF740FA08B13046F8BD0320FDF7E2FEC3
:1055E0000220009095F8220008B18220009095F8E2
:1055F000230020B19DF8000040F0300000902868A2
:105600006B460122017D68680078FCF723FAE8B355
:105610003046F8BDFFE7097900786B460122FCF7B8
:10562000E1F908B13046F4E7A87AC00705D09DF843
:10563000000040F02000009004E09DF8000020F001
:105640002000009028686B46012201796868007884
:10565000FCF700FA08B13046DBE70320FDF7A2FEB5
:1056600095F8220010B18020009001E00020009009
:1056700095F8230020B19DF8000040F03000009024
:1056800028686B46017D6868007800E005E001222B
:10569000FCF7E0F908B13046BBE7AC740020B8E78E
:1056A000C000002038B51D4C94F82410814201D16F
:1056B000002038BD0025F0B194F82500C0B10020CD
:1056C00000F060FF0020FFF761FFE08C00F0D2F8EF
:1056D000009560686B46012200782321FCF7BAF937
:1056E000012084F8240000F04DFFFFF7E3FD12E0F5
:1056F0004FF0FF3038BD002000F044FF207C0090C8
:1057000060686B46012200782321FCF7A3F984F836
:105710002450FFF7CFFD002038BD0000C00000205E
:1057200038B51C4C4FF0FF35A17A00290CD0FA286F
:105730000CD0B0F5FA7F0CD0B0F57A7F0CD0B0F574
:10574000FA6F0CD0284638BD284638BD002000909E
:1057500007E00820009004E01020009001E01820ED
:105760000090207A9DF80010B0EBD10F01D10020FD
:1057700038BD20686B460122817960680078FCF7AB
:1057800069F908B1284638BD9DF80000C0082072AC
:10579000002038BDC000002038B50446154D95F8EE
:1057A0002300A04201D1002038BD14B13020009068
:1057B00001E000200090A87C20B19DF8000040F09E
:1057C0000200009095F8220020B19DF8000040F002
:1057D0008000009028686B460122017D686800788F
:1057E000FCF738F910B14FF0FF3038BD85F8234091
:1057F000002038BDC000002038B51D4C4FF0FF35EB
:10580000A17A002904D0BC2804D30120009017E01D
:10581000284638BD622802D30220009010E02A28D2
:1058200002D3032000900BE0142802D30420009040
:1058300006E00A2802D30520009001E0062000902F
:10584000E07A9DF80010884201D1002038BD206820
:105850006B460122817860680078FCF7FBF808B19C
:10586000284638BD9DF80000E072002038BD0000D9
:10587000C0000020F8B504461E4D4FF0FF37A87A4F
:10588000002804D095F8240018B13846F8BD3846F1
:10589000F8BD287D50B134B1282C04D8E0B2FFF710
:1058A00013FC0020F8BD0020FFF70EFC4FF47A76C1
:1058B000042C01D2042402E0B44200D93446B6FBE1
:1058C000F4F0401E009028686B4601224178686819
:1058D0000078FCF7BFF808B13846F8BD9DF8000025
:1058E000401CB6FBF0F0E8814008FFF785FF002080
:1058F000F8BD0000C0000020F8B5044614F0700F99
:105900004FF0000602D00120009004E00CB1009698
:1059100001E040200090234D6B4601222868817CE5
:1059200068680078FCF796F84FF0FF3710B1AE7258
:105930003846F8BD9DF8000020F04000287300961E
:10594000600601D404200090A00604D49DF8000055
:1059500040F002000090E00604D49DF8000040F002
:1059600001000090200704D49DF8000040F03800AA
:10597000009028686B460122C17C68680078FCF7BB
:1059800069F810B1AE723846F8BD24B1082C02D0C7
:105990000020FFF701FFAC722E753220FDF702FDEB
:1059A0000020F8BDC00000202DE9F8430E469046C7
:1059B0004FF0FF35B8F1000F10D0164FB97A79B11A
:1059C000010A8DF80010C4B28DF80140A0197C685E
:1059D0006189884206D92846BDE8F8832846FBE756
:1059E0002846F9E738686B460222017E2078FCF7EA
:1059F00031F808B12846EFE73868F2B24346417DF6
:105A000078680078FCF726F808B12846E4E700201B
:105A1000E2E70000C00000200346012000E05843F8
:105A2000491EC9B2FBD270472DE9F04104460F462A
:105A3000174EF5683068001D00F0CCFF38B93068AB
:105A400090F82C1001208840316981433161601C3D
:105A500007D137B13168BDE8F041091D0D4800F0AC
:105A6000F1BF2C4430684460AC4206D23168B06B60
:105A7000091DBDE8F04100F0CDBF3168706B091D14
:105A800000F0C8FFB06A844200D2B462BDE8F08181
:105A900014010020A015002070B5044600F0DEFFC0
:105AA0001D4DA868401CA860286810B1686938B10D
:105AB0000CE02C60A868012808D100F099F905E0F5
:105AC0002868E16AC06A884200D82C60686A401C75
:105AD00068626064E06A01212A698140114329619A
